:100000000C94BE040C94E6040C94E6040C94E604F0
:100010000C94E6040C94E6040C94E6040C94E604B8
:100020000C94E6040C94E6040C949D0C0C940C0DBA
:100030000C94E6040C94E6040C94E6040C94E60498
:100040000C94E6040C944F100C94E6040C94E60413
:100050000C94E6040C94E6040C94E6040C943E0F15
:100060000C94E6040C94E6040C94E6040C94E60468
:100070000C94E6040C94E6040C94E6040C94E60458
:100080000C94880F0C94E6040C94E6040C94E6049B
:100090000C94E6040C94E6040C94E6040C94E60438
:1000A0000C94E6040C94E6040C94E6043F212D2104
:1000B0002121212121212121212121212121212130
:1000C00021212121212121213F3F212D2D2D2D2DA8
:1000D0002121212121212121212121212121212110
:1000E00021212121213F3F212D2D2D2D2D2D2D2D64
:1000F0002D2D2121212121212121212121212121D8
:1001000021213F3F212D2D2D2D2D2D2D2D2D2D212B
:100110002121212121212121212121212121213FB1
:100120003F212D2D2D2D2D2D2D2D2D2D2D2D2D2DF9
:100130002D2D2D2D2D2D2121212121213F3F212D1F
:100140002D2D2D2D2D2D2D2D2D2D2D2D2D2D2D2DDF
:100150002D2D2D2D2D2D2D2D213FC0B08C83010156
:100160002131A9650360582611080402010000002E
:1001700000000000003E5B4F5B3E3E6B4F6B3E1C41
:100180003E7C3E1C183C7E3C181C577D571C1C5E58
:100190007F5E1C00183C1800FFE7C3E7FF0018242F
:1001A0001800FFE7DBE7FF30483A060E26297929D9
:1001B00026407F050507407F05253F5A3CE73C5A0E
:1001C0007F3E1C1C08081C1C3E7F14227F22145FEB
:1001D0005F005F5F06097F017F006689956A606046
:1001E00060606094A2FFA29408047E040810207E40
:1001F000201008082A1C08081C2A08081E101010C5
:10020000100C1E0C1E0C30383E3830060E3E0E060A
:10021000000000000000005F00000007000700145D
:100220007F147F14242A7F2A12231308646236491C
:100230005620500008070300001C22410000412204
:100240001C002A1C7F1C2A08083E08080080703009
:100250000008080808080000606000201008040278
:100260003E5149453E00427F40007249494946217E
:1002700041494D331814127F1027454545393C4AF2
:100280004949314121110907364949493646494909
:10029000291E000014000000403400000008142251
:1002A00041141414141400412214080201590906BF
:1002B0003E415D594E7C1211127C7F494949363EC0
:1002C000414141227F4141413E7F494949417F09A6
:1002D0000909013E414151737F0808087F00417FB1
:1002E00041002040413F017F081422417F404040AF
:1002F000407F021C027F7F0408107F3E4141413E47
:100300007F090909063E4151215E7F0919294626C8
:100310004949493203017F01033F4040403F1F20CC
:1003200040201F3F4038403F6314081463030478A3
:1003300004036159494D43007F41414102040810C3
:1003400020004141417F04020102044040404040FE
:10035000000307080020545478407F28444438386C
:1003600044444428384444287F38545454180008DE
:100370007E090218A4A49C787F0804047800447DB8
:1003800040002040403D007F1028440000417F4055
:10039000007C047804787C080404783844444438A9
:1003A000FC1824241818242418FC7C080404084889
:1003B0005454542404043F44243C4040207C1C20DA
:1003C00040201C3C4030403C44281028444C909035
:1003D000907C4464544C440008364100000077008F
:1003E00000004136080002010204023C2623263C9C
:1003F0001EA1A161123A4040207A38545455592127
:100400005555794121545478412155547840205410
:100410005579400C1E52721239555555593954545C
:10042000545939555454580000457C410002457DCB
:10043000420001457C40F0292429F0F0282528F0CD
:100440007C545545002054547C547C0A097F493221
:10045000494949323248484832324A4848303A419C
:1004600041217A3A42402078009DA0A07D39444441
:1004700044393D4040403D3C24FF2424487E4943CC
:10048000662B2FFC2F2BFF0929F620C0887E09033D
:1004900020545479410000447D413048484A323864
:1004A0004040227A007A0A0A727D0D19317D262990
:1004B000292F28262929292630484D402038080888
:1004C000080808080808382F10C8ACBA2F102834BC
:1004D000FA00007B000008142A142222142A1408AF
:1004E0009500220095AA005500AAAA55AA55AA006F
:1004F0000000FF00101010FF00141414FF00101073
:10050000FF00FF1010F010F0141414FC001414F786
:1005100000FF0000FF00FF1414F404FC1414171073
:100520001F10101F101F1414141F00101010F000C3
:100530000000001F101010101F10101010F01000FD
:100540000000FF101010101010101010FF1000000D
:1005500000FF140000FF00FF00001F10170000FC48
:1005600004F414141710171414F404F40000FF001A
:10057000F714141414141414F700F71414141714A3
:1005800010101F101F141414F4141010F010F000A9
:10059000001F101F0000001F14000000FC140000CA
:1005A000F010F01010FF10FF141414FF14101010AE
:1005B0001F00000000F010FFFFFFFFFFF0F0F0F061
:1005C000F0FFFFFF0000000000FFFF0F0F0F0F0FF5
:1005D00038444438447C2A2A3E147E02020606022D
:1005E0007E027E0263554941633844443C04407EA8
:1005F000201E2006027E020299A5E7A5991C2A4921
:100600002A1C4C7201724C304A4D4D3030487848AB
:1006100030BC625A463D3E494949007E0101017E97
:100620002A2A2A2A2A44445F444440514A444040EA
:10063000444A51400000FF0103E080FF0000080829
:100640006B6B083612362436060F090F06000018A9
:10065000180000001010003040FF0101001F0101D0
:100660001E00191D1712003C3C3C3C00000000001D
:1006700006011501260137014A015D017201880159
:100680009F01B801D201EE010B022A024B026E0259
:100690009302BA02E40210033F037003A403DC03D5
:1006A000170455049704DD0427057505C8052006C1
:1006B0007D06E0064907B8072D08A9082D09B909E4
:1006C0004D0AEA0A900B400CFA0CC00D910E6F0F08
:1006D0005A1053115B1272139A14D41520178018F4
:1006E000F519801B231DDE1EB420A622B524E426A6
:1006F0003429A72B402E0031EA330037453ABC3D60
:1007000068414C456B49C84D68524F57805C006248
:1007100010111213151617181A1C1D1F2123252737
:10072000292C2E3134373A3E4145494E52575C62AE
:10073000686E757B838B939CA5AFB9C4D0DCE9F759
:10074000D5F08D14A1C881CFD9F1AF2000140213C8
:1007500002120215020702080204010C0106010040
:1007600000000000240027002A002D0030000000B7
:10077000000200090F0000030401000C000000004B
:1007800000000000000000000000000000080B0056
:100790000202020000090400000102020000052418
:1007A00000100105240101010424020605240600AD
:1007B000010705810310004009040100020A00003E
:1007C0000007050202400000070583024000000404
:1007D00003090412010002EF0201404123368000A8
:1007E000010102030141726475696E6F204C4C4334
:1007F0000041726475696E6F204C656F6E61726442
:100800006F007070F8FCFE008850205088000000D7
:1008100001030000000000007070F8FCFE00887109
:1008200002FC0000000001030000040201000303B9
:100830000C0CF0F00C0C03030000FCFC030303039E
:10084000FCFC0000FFFF00000000FFFF00000000B4
:1008500000808363606060606060606063636363A6
:100860006060606060606363638380000000007E9E
:100870007E818118187E7E181880806060606060BC
:1008800060808018186666181881817E7E00C0C05E
:10089000000101060606C6C60601C1C0C0C0C0C030
:1008A0000001C1C6C6C6C6C6C6C10100C0C0FFFFA2
:1008B000C0C0FFFFC0C0FFFF0000C0C0FFFFC0C03E
:1008C0000000FFFF00000000FFFF0000CFCF80F11D
:1008D000FFFFDFC3C3E3677F3F1F0F7FFEE070387A
:1008E0001C0F87FFFFFFC7C3C3E37F7F3E1018388D
:1008F000383CBC3CBC3C3CBC2424A4A5242424BCE3
:10090000BCBC3C3CBCBC3C381818100000000000CB
:1009100000030403000007000007040300000706AB
:100920000400030404030000000000040802011096
:100930004080401020408040800802040180402018
:10094000100201108010204040200000000025000F
:1009500028002B002E0031000404040404030405C5
:10096000020202020403020202020606060606064C
:1009700004040202020404030100BA1011241FBE81
:10098000CFEFDAE0DEBFCDBF11E0A0E0B1E0E2E9F9
:10099000FAE202C005900D92AC33B107D9F725E019
:1009A000ACE3B1E001C01D92A53EB207E1F714E04F
:1009B000CEEBD4E004C02197FE010E942815CD3B68
:1009C000D107C9F70E94FF100C9447150C94000042
:1009D0002F923F924F925F926F927F928F929F924F
:1009E000AF92BF92CF92DF92EF92FF920F931F933D
:1009F000CF93DF9300D000D000D01F92CDB7DEB7E9
:100A0000803891050CF088C0603471050CF084C00A
:100A10007B0117E0E122FF2433E0759567953A9555
:100A2000E1F7402E469446944694512C077019F0F5
:100A30003FEF431A530A30E0DA01460E571EFB011E
:100A4000F695FE2FEE27F795E795E80FF91F50E092
:100A500040E08F0105531E4F380110E8812E912C84
:100A6000881A990ACF01855B9D4F5C0188E090E070
:100A70008C010E191F091F830E834616570609F4B1
:100A80004BC06830710509F447C0C301840F951F3E
:100A90009D838C838501040F151F90E080E01D016C
:100AA000280E391EF101C4900E2C01C0CC0C0A9402
:100AB000EAF7EC81FD81D488CD28C48AE114F104E1
:100AC000C1F067307105A9F0F10124906801C80EEA
:100AD000D91E312CF1010E8002C0F595E7950A94DC
:100AE000E2F7FA83E983F6012488F9812F2AF601D7
:100AF000248A0196EC81FD813196FD83EC83821777
:100B000093071CF48816990651F66F5F7F4FA20F6A
:100B1000B31F40585F4FB1CF27960FB6F894DEBF92
:100B20000FBECDBFDF91CF911F910F91FF90EF903E
:100B3000DF90CF90BF90AF909F908F907F906F90FD
:100B40005F904F903F902F9008950F93019729F554
:100B50006091C90170E08091CA0103E12FE14EEC80
:100B600058E090E00E94E8048091100190911101FA
:100B70000BE02BE042E058E08130910531F0029724
:100B800051F40BE02BE048E158E070E060E090E0C9
:100B900080E00E94E8040F91089508E220E24EE20E
:100BA00058E06CE070E080E390E0DCCFFC018091E5
:100BB0007101882311F13FB7F89482E08093E90036
:100BC0002091F200822F90E01816190614F481E0AB
:100BD00090E0882339F0289844E6409370014091D2
:100BE000F1004083222339F02091F200211103C04B
:100BF0002BE62093E8003FBF08958FEF9FEF089505
:100C00002FB7F89483E08093E9009091E800892F52
:100C1000807295FF04C09091F20080E4891B2FBF81
:100C200008958091680181110DC082E08093640174
:100C300084E080936501109267011092660181E063
:100C40008093680184E691E00895CF93DF931F922B
:100C5000CDB7DEB76983DC01ED91FC910280F381B1
:100C6000E02D41E050E0BE016F5F7F4F09950F908E
:100C7000DF91CF91089583E08093E9008091F200A5
:100C8000882319F08AE38093E80008950E94000603
:100C900090E00895CF93DF931F92CDB7DEB7FC01AC
:100CA0008485958597FD08C02FEF3FEF3587248712
:100CB0000F90DF91CF910895CE0101960E94D60545
:100CC000019719F4898190E0F3CF8FEF9FEFF0CF78
:100CD0000F931F93CF93DF931F92CDB7DEB78C0195
:100CE000FC018485958597FF0BC0CE0101960E947B
:100CF000D605019771F4898190E0F8019587848782
:100D0000F801848595850F90DF91CF911F910F9108
:100D100008958FEF9FEFF1CFFC018485958597FDB6
:100D20000BC09FB7F89482E08093E9008091F200B5
:100D30009FBF90E0019608959FB7F89482E080935A
:100D4000E9008091F2009FBF90E0089540915E011C
:100D500050915F0120915C0130915D014217530772
:100D6000B4F49091E8009570E1F39091E80092FD61
:100D700019C08093F10080915E0190915F0101960E
:100D80008F739927892B19F48EEF8093E800809157
:100D90005E0190915F01019690935F0180935E01E7
:100DA00081E0089580E00895EF92FF920F931F93E2
:100DB000CF93DF93F82E192FE62E042F81E0860FB4
:100DC000880F0E94A60683E00E94A606CF2DD12F91
:100DD000EC0EFD2EF11CCE15DF05B9F007FF13C098
:100DE000FE0184910E94A606182F80E00E94A606AC
:100DF000812321968111EFCFDF91CF911F910F9128
:100E0000FF90EF9008958881EDCF81E0F5CFDF92DC
:100E1000EF92FF920F931F93CF93DF93D82E8A0107
:100E2000EB017B01E40EF51ECE15DF0559F0D7FE70
:100E300012C0FE0184910E94A60621968111F4CF72
:100E40000FEF1FEFC801DF91CF911F910F91FF901E
:100E5000EF90DF9008958881EECF0F931F93CF938B
:100E6000DF931F92CDB7DEB782E0898342E450E082
:100E70006DE877E080E80E9407070E941106DC0118
:100E800012960D911C910115110589F0D801ED9173
:100E9000FC910280F381E02DBE016F5F7F4FC8019E
:100EA000099597FD04C0F80100851185ECCF898173
:100EB0000F90DF91CF911F910F910895615030F005
:100EC0002091F100FC0120830196F8CF289884E658
:100ED000809370010895282F30E0F901E259F84F0E
:100EE0009491F901E55DF64F8491285A364FF90146
:100EF0002491222309F430C09923E9F091509F30C6
:100F0000D0F4E92FF0E0E957F84F0C942815B50715
:100F1000B9079607AD07B1079B079B079B07BC075F
:100F2000C207C607CA07D0079B07D4079091800065
:100F30009F7790938000E22FF0E0EE0FFF1FE65BBB
:100F4000F64FA591B4919FB7F894EC91611132C01E
:100F500080958E238C939FBF0895909180009F7DF4
:100F6000E8CF90918000977FE4CF94B59F7794BDB0
:100F7000E2CF94B59F7DFBCF909190009F779093A7
:100F80009000D9CF909190009F7DF9CF90919000E3
:100F9000977FF5CF9091C0009F779093C000CBCF03
:100FA0009091C0009F7DF9CF9091C200977F909360
:100FB000C200C1CF8E2BCECFCF93DF9390E0FC0148
:100FC000E55DF64F2491885A964FFC018491882361
:100FD000C9F090E0880F991FFC01E05AF84FA591E5
:100FE000B491FC01E65BF64FC591D49161110DC03F
:100FF0009FB7F8948C91209582238C938881282325
:1010000028839FBFDF91CF910895623051F49FB73D
:10101000F8943C91822F809583238C93E8812E2B2A
:10102000EFCF8FB7F894EC912E2B2C938FBFEACF94
:101030001F93CF93DF93182FEB0161E00E94DC0731
:10104000209739F460E0812FDF91CF911F910C94AC
:101050006B07CF3FD10511F461E0F5CFE12FF0E050
:10106000E259F84FE491E150EF3008F07FC0F0E032
:10107000E45CF74F0C9428154B0853085808620895
:101080006C08B608B608B608760880088A0894087E
:10109000A108B608A90884B5806884BDC7BDDF91E2
:1010A000CF911F91089584B5806284BDC8BDF7CFEC
:1010B00080918000806880938000D0938900C093E5
:1010C0008800EDCF80918000806280938000D09373
:1010D0008B00C0938A00E3CF80918000886080936A
:1010E0008000D0938D00C0938C00D9CF8091900068
:1010F000806880939000D0939900C0939800CFCFE0
:1011000080919000806280939000D0939B00C09368
:101110009A00C5CF80919000886080939000D09312
:101120009D00C0939C00BBCF8091C00080688093DD
:10113000C0008091C0008F7B8093C000C093CF001F
:10114000AECF8091C00080628093C000C093D00079
:10115000A6CF8091C20088608093C2008091C200B7
:101160008B7F8093C200C093D20099CFC038D10545
:101170000CF072CF67CF3FB7F894809158019091EF
:101180005901A0915A01B0915B0126B5A89B05C0F9
:101190002F3F19F00196A11DB11D3FBFBA2FA92FF6
:1011A000982F8827BC01CD01620F711D811D911DF3
:1011B00042E0660F771F881F991F4A95D1F708955F
:1011C0008F929F92AF92BF92CF92DF92EF92FF9257
:1011D0006B017C010E94BB084B015C01C114D1046E
:1011E000E104F104B9F00E94BB08681979098A0981
:1011F0009B09683E73408105910580F321E0C21A86
:10120000D108E108F10888EE880E83E0981EA11C41
:10121000B11CE4CFFF90EF90DF90CF90BF90AF90E4
:101220009F908F9008958F929F92AF92BF92CF928E
:10123000DF92EF92FF920F931F93CF93DF936C0196
:101240007B018A0180910F01882309F45CC08091A1
:101250007101882309F457C08091630180FF05C0A4
:101260008091E00082608093E000E801B12C8AEF79
:10127000A82E93E0892E2AE3922E209711F4BB200A
:10128000D9F10E94000681110AC0AA94AA20D9F1BE
:1012900061E070E080E090E00E94E008EECF8C1703
:1012A0001D0611F00CF08C2F9FB7F8948092E90086
:1012B0002091E80025FD02C09FBFDFCF282F30E03E
:1012C000C21BD30BF701815020F041914093F100F4
:1012D000FACFE20EF31EBB2021F09092E800B12C71
:1012E000EBCF8091E80085FDE7CF9092E800BB242A
:1012F000B394209709F3F3CF5D9884E6809362015D
:10130000101611063CF081E090E0F6019383828391
:1013100010E000E0C801DF91CF911F910F91FF9085
:10132000EF90DF90CF90BF90AF909F908F900895F7
:10133000AF92BF92CF92DF92EF92FF920F931F93E3
:10134000CF93DF936C017B018B01040F151FEB0121
:101350005E01AE18BF08C017D10759F06991D601D8
:10136000ED91FC910190F081E02DC6010995892B4A
:1013700079F7C501DF91CF911F910F91FF90EF9009
:10138000DF90CF90BF90AF9008954FB18CB123B153
:1013900090E08095909533E0959587953A95E1F7A3
:1013A000887030E0209530953595279535952795AF
:1013B0002470822B942F9095907F892B0895CF9243
:1013C000DF92EF92FF920F931F93CF93E82FF0E0FD
:1013D000E958F64FC491E62FF0E0603398F5E05FEE
:1013E000F84FE4910E2F10E0F12CE12C60E074E254
:1013F00084EF90E0A70198010E94B11421503109B7
:101400004109510991E02115310581E04807510555
:101410006CF060E970ED83E090E0A70198010E9414
:10142000B114215031094109510993E0C13089F0CB
:10143000C330F9F0CF911F910F91FF90EF90DF90A3
:10144000CF900895EE0FFF1FE05FF94F05911491C3
:10145000CBCF80918100887F892B8093810030934E
:1014600089002093880080916F00826080936F00D4
:10147000E1CF80919100887F892B809391003093F8
:10148000990020939800109344010093430181E058
:101490008093420180917100826080937100CACF75
:1014A000E82FF0E0E958F64FE491E13019F0E3302D
:1014B00089F0089580916F008D7F80936F008091F7
:1014C0007501E0917601F0917701908180958923F3
:1014D000808308951092420180917201E09173011E
:1014E000F0917401F2CFCF93DF9390917801923015
:1014F00081F0C82FE92FF0E0E958F64FD4919F5FB3
:101500009093780161E00E94DC07D13029F0D3305C
:1015100049F1DF91CF9108951092800010928100DF
:10152000809181008860809381008091810081603A
:10153000809381008C2F90E0FC01E85AF64FE491F3
:10154000F0E0EE0FFF1FE65BF64F259134913093EC
:10155000770120937601855D964FFC0184918093FD
:101560007501D7CF10929000109291008091910058
:1015700088608093910080919100816080939100B8
:101580008C2F90E0FC01E85AF64FE491F0E0EE0F6A
:10159000FF1FE65BF64F2591349130937401209341
:1015A0007301855D964FFC01849180937201809157
:1015B0007801882321F06CE380E00E94DF0980E05D
:1015C000DF91CF910C94500A2F923F924F925F92ED
:1015D0006F927F928F929F92AF92BF92CF92DF9243
:1015E000EF92FF920F931F93CF93DF9300D000D021
:1015F000CDB7DEB76A3069F5FC01EA5EFB4FDC016E
:10160000A85EBB4F2C9148E0249F9001112440819B
:101610005181240F351F318320838C5E9B4FDC0169
:101620001D921C920F900F900F900F90DF91CF9111
:101630001F910F91FF90EF90DF90CF90BF90AF90F0
:101640009F908F907F906F905F904F903F902F90E2
:1016500008956D3039F3FC01E85EFB4FB08034979C
:10166000408151810B2D10E0403851050CF08DC0A8
:10167000329680809180B0E48B1691040CF085C086
:1016800075E09A01B79E200D311D11241216130624
:101690000CF07BC09801E3E0220F331FEA95E1F7DD
:1016A000280D391D121613060CF06FC0679FB0018C
:1016B00011245C834B83B0E0A0E0FB01E059FE4FB6
:1016C0001F01E0E0A53021F0F101EA0FFB1FE491DA
:1016D000740138E0A32E4E2E512CE1707E2E6B81CA
:1016E0007C81262FFB812F1B2B15E0F51A82198296
:1016F00029812B15A0F56038710538F5C980DA808D
:10170000CE0CDF1C30E4C316D104F8F42E0D322FBA
:1017100036953695369520E8329FF0011124E60F74
:10172000F71F37E0C322DD2421E030E002C0220FA2
:10173000331FCA94E2F769019F01280F391FF9018D
:101740006488772049F0C628C48A29813A812F5FAE
:101750003F4F3A832983CCCFC094C620F5CF6F5F2B
:101760007F4FBFCF55944794E42DAA94E00EF11E0D
:10177000A110B1CF11962B813C81200F311F3C83EA
:101780002B83A630B10509F09CCF36E0B39E400D07
:10179000511D1124FC01EC5EFB4F518340833596B3
:1017A0002081222309F43ECF6AEF60039001619FFC
:1017B000300D112420583F4F241735070CF032CF3D
:1017C000DC01ED91FC910190F081E02D6AE00F9039
:1017D0000F900F900F90DF91CF911F910F91FF907D
:1017E000EF90DF90CF90BF90AF909F908F907F90C1
:1017F0006F905F904F903F902F900994089590E0E4
:1018000080E008950F938B309105B4F40FE02BE046
:101810004AE551E070E060E082E590E00E94E80473
:1018200006E02DE14DE351E065E070E08FE590E0EA
:101830000E94E8040F9108959C012B5031092A3031
:10184000310578F40FE02BE04AE551E070E060E00C
:1018500082E590E00E94E80406E02DE140E251E0DC
:10186000E3CF9C01255131092A30310578F40FE08E
:101870002BE04AE551E070E060E082E590E00E94F4
:10188000E80406E02DE143E051E0CECF9C012F516A
:1018900031092A30310578F40FE02BE04AE551E0B8
:1018A00070E060E082E590E00E94E80406E02DE14F
:1018B00046EE50E0B9CF89970FE02BE04AE551E0C2
:1018C00070E060E00A9748F482E590E00E94E80446
:1018D00006E02DE149EC50E0A7CF82E590E00E94C0
:1018E000E80406E02DE14CEA50E09ECF80915201E1
:1018F000882301F181E08093510180918100887FEC
:101900008160809381008FEF9CE7909389008093A2
:1019100088008BE490E0A0E0B0E080934D019093CC
:101920004E01A0934F01B093500180916F008260EF
:1019300080936F0008950E9442151F920F920FB678
:101940000F9211248F939F938091E1009091E10079
:10195000937F9093E10083FF0FC01092E90091E024
:101960009093EB001092EC0092E39093ED001092B4
:10197000710198E09093F00082FF22C093E0909371
:10198000E9009091F200992319F09AE39093E8000E
:1019900090916201992341F090916201915090934E
:1019A0006201911101C05D9A90917001992341F0FB
:1019B00090917001915090937001911101C0289AFB
:1019C00084FF18C08091E2008E7E81608093E200E7
:1019D0008091E1008F7E8093E100809163018E7E93
:1019E0008061809363019F918F910F900FBE0F9044
:1019F0001F90189580FFF7CF8091E2008E7E806166
:101A00008093E2008091E1008E7E8093E1008091DE
:101A100063018E7E8160E5CF1F920F920FB60F9209
:101A20001124CF92DF92EF92FF920F931F932F9387
:101A30003F934F935F936F937F938F939F93AF9356
:101A4000BF93EF93FF93CF93DF93CDB7DEB76C9740
:101A5000DEBFCDBF1092E9008091E80083FF25C072
:101A600068E0CE0145960E945E0782EF8093E80011
:101A70008D8987FF39C09091E80090FFFCCF982FA7
:101A8000907609F034C19E894F89588D2F89F88C42
:101A9000911131C0803861F5809161018093F1002E
:101AA0001092F1008EEF8093E8006C960FB6F894D8
:101AB000DEBF0FBECDBFDF91CF91FF91EF91BF9100
:101AC000AF919F918F917F916F915F914F913F91D6
:101AD0002F911F910F91FF90EF90DF90CF900F907B
:101AE0000FBE0F901F9018959EEF9093E800C7CF00
:101AF0001092F100D5CF913059F48111D3CF4130FC
:101B0000510581F6809161018D7F80936101CACF7B
:101B1000933049F48111C6CF4130510519F68091B7
:101B200061018260F2CF953041F48091E80080FF3E
:101B3000FCCF20682093E300B5CF963009F0A9C010
:101B40000B8D1C8D22E01092E90010925F01109223
:101B50005E01F2122EC010925D0110925C010E9493
:101B60002D071F8299E09983FA8291E09E8390EA83
:101B700098879AEF998720915E0130915F01275FE6
:101B80003F4F3C832B838D831092E90010925F01BD
:101B900010925E0110935D0100935C0149E050E0FA
:101BA000BE016F5F7F4F80E00E9407070E942D07F4
:101BB00079CF10935D0100935C010E941106DC0156
:101BC00012960D911C910115110509F451C1D8010E
:101BD000ED91FC910480F581E02DBE016B5E7F4F9D
:101BE000C8010995009709F03EC1F80100851185EB
:101BF000EACFF3E0FF120EC08F89882309F440C0BA
:101C0000823061F440E860E181EF97E00E94D40601
:101C1000811148CF81E28093EB0047CF813029F4D6
:101C200040E86BE085EE97E0F1CF833099F70E94B2
:101C30001106DC011296ED90FC908E010F5F1F4F94
:101C40006801E114F10479F0D701ED91FC9106806F
:101C5000F781E02DB801C7010995080F111DF701A3
:101C6000E084F184EECFD8011C92F60101900020AF
:101C7000E9F73197BF016C197D0940E0C601C6CF75
:101C80006FEC77E0FB01449150E080E80E94070789
:101C900009CF973009F4BECF983021F481E08093CA
:101CA000F10000CF993009F0FDCE837009F0B2CF7A
:101CB000E7E1F1E081E031E096E32191222371F048
:101CC0008093E9003093EB00DF0111972C91209372
:101CD000EC009093ED008F5F873079F78EE780936B
:101CE000EA001092EA008F8980937101DBCE8B8D20
:101CF0009C8D1092E90010925F0110925E0190930A
:101D00005D0180935C01898D811192C08E899D89CE
:101D1000913A49F4813209F07DCF47E050E068E024
:101D200071E080E0B3CF913209F074CF833269F46F
:101D30008F89988DB0E0A0E0809304019093050115
:101D4000A0930601B0930701ADCE803269F4809173
:101D5000E80082FFFCCF67E088E091E00E945E0728
:101D60008BEF8093E8009ECE823209F09BCE8F8964
:101D700080930F01EEEFFFE7859194918B3F9C4D8F
:101D800051F1E0E0F8E08091080190910901A09103
:101D90000A01B0910B01803B9440A105B105F1F41B
:101DA00080910F0180FD1AC0EE3F8AE0F80789F5A7
:101DB00087E797E79183808380916000809360013B
:101DC00088E19BE00FB6F894A895809360000FBE61
:101DD0009093600067CEEEEFFAE0D5CF80819181DD
:101DE0008737974709F05ECEA8958091600088619B
:101DF000809360008091600180936000EE3F2AE054
:101E0000F20789F08091FE0A9091FF0A9183808306
:101E100049CE808191818737980751F29093FF0ACC
:101E20008093FE0AC5CF1092FF0A1092FE0A3ACEA6
:101E30000E941106DC0112960D911C9101151105ED
:101E400009F4E8CED801ED91FC910190F081E02DEC
:101E5000BE016B5E7F4FC8010995811123CEF80149
:101E600000851185EBCF181619060CF41BCED2CEC7
:101E7000F1E0FF12BECE63ED77E004CF1F920F9228
:101E80000FB60F9211242F933F938F939F93AF938D
:101E9000BF938091540190915501A0915601B0914A
:101EA00057013091530123E0230F2D3758F5019648
:101EB000A11DB11D209353018093540190935501AE
:101EC000A0935601B0935701809158019091590108
:101ED000A0915A01B0915B010196A11DB11D8093A3
:101EE000580190935901A0935A01B0935B01BF919F
:101EF000AF919F918F913F912F910F900FBE0F90B7
:101F00001F90189526E8230F0296A11DB11DD2CF70
:101F10001F920F920FB60F9211242F933F934F935E
:101F20005F936F937F938F939F93AF93BF93EF9341
:101F3000FF9380914201882349F080917201E091E2
:101F40007301F0917401908189278083809145010C
:101F5000882309F456C080913E0190913F01A091E1
:101F60004001B0914101892B8A2B8B2B09F449C088
:101F700080913E0190913F01A0914001B0914101BB
:101F80000197A109B10980933E0190933F01A0936D
:101F90004001B0934101892B8A2B8B2B91F5E09165
:101FA0003C01F0913D01BF016F5F7F4F70933D0198
:101FB00060933C012491922F907F822F8F709038F4
:101FC00019F40E94500AEBCF903981F43296F093C5
:101FD0003D01E0933C01FB016491909178018917E8
:101FE000F0F667FDDCCF0E94DF09D9CF903E29F4DF
:101FF00010923D0110923C01D2CF903F99F4109283
:102000004501FF91EF91BF91AF919F918F917F918A
:102010006F915F914F913F912F910F900FBE0F9055
:102020001F90189597FDBBCF3296F0933D01E0933A
:102030003C01FB016491A0914301B0914401322F16
:10204000262F0E9405156C507E4F8F4F9F4F28EE14
:1020500033E040E050E00E94E31420933E013093CF
:102060003F01409340015093410180913E01909186
:102070003F01A0914001B0914101892B8A2B8B2B0C
:1020800009F0BFCF81E090E0A0E0B0E080933E0196
:1020900090933F01A0934001B0934101B2CF1F92B2
:1020A0000F920FB60F9211248F939F93AF93BF930C
:1020B000EF93FF9380915101882309F452C08091DE
:1020C0004D0190914E01A0914F01B0915001892B8B
:1020D0008A2B8B2BA1F190917501E0917601F09103
:1020E000770180818927808380914D0190914E01F5
:1020F000A0914F01B0915001181619061A061B063F
:102100009CF480914D0190914E01A0914F01B091AE
:1021100050010197A109B10980934D0190934E019F
:10212000A0934F01B0935001FF91EF91BF91AF91F8
:102130009F918F910F900FBE0F901F901895109246
:10214000510180916F008D7F80936F0080917501A8
:10215000E0917601F09177019081809589238083C9
:10216000E3CF90917501E0917601F0917701808144
:102170008927F5CFE9E7F1E01382128288EE93E038
:10218000A0E0B0E084839583A683B78381E291E0E9
:10219000918380838FEF9FEF95878487EBECF1E04D
:1021A0001382128283E391E0918380838CE38683A0
:1021B00080E181871086178216861786108A118A19
:1021C000128A1092E0051092DF051092E20510923B
:1021D000E10581E08093E3050E94991461E670E0D7
:1021E0000E9414158F5F8093CA010E9499146DE2BA
:1021F00070E00E9414158F5F8093C9010895789450
:1022000084B5826084BD84B5816084BD85B58260FB
:1022100085BD85B5816085BD80916E0081608093AC
:102220006E00109281008091810082608093810015
:102230008091810081608093810080918000816025
:1022400080938000809191008260809391008091C2
:1022500091008160809391008091900081608093D3
:1022600090008091C10084608093C1008091C10082
:1022700082608093C1008091C10081608093C10021
:102280008091C30081608093C3008091C000826010
:102290008093C0008091C20081608093C2008091D1
:1022A0007A00846080937A0080917A0082608093C3
:1022B0007A0080917A00816080937A0080917A0020
:1022C000806880937A0010927101109261011092DF
:1022D00063018091D70081608093D70080EA80936A
:1022E000D80089B5806189BD89B5826089BD09B48E
:1022F00000FEFDCF61E070E080E090E00E94E00829
:102300008091D8008F7C80618093D8008091E0001C
:10231000807F8093E0008091E1008E7E8093E100D9
:102320008DE08093E200559A209ACFB7F89480917F
:102330004601811127C0E9E6F9E08491ECE3F9E078
:102340009491E82FF0E0EE0FFF1FE05AF84FA591AF
:10235000B491EC91E92321F461E081E10E946B07E3
:1023600061E081E10E94DC078CB580618CBD8CB599
:1023700080648CBD61E08FE00E94DC0761E080E159
:102380000E94DC07809146018F5F80934601CFBF9A
:10239000CDE4D7E0BE01FE0184916F5F7F4F2296AE
:1023A000FB016491882319F00E94DC07F3CF61E000
:1023B00086E00E946B0761E070E080E090E00E94A0
:1023C000E00860E086E00E946B076AE070E080E071
:1023D00090E00E94E00861E086E00E946B07E4E67E
:1023E000F9E0E491F0E0EE0FFF1FE65BF64F859118
:1023F000949190934C0180934B01E7E3F9E0E491D1
:10240000E0934A01ECE5F9E0E491F0E0EE0FFF1F04
:10241000E65BF64F85919491909349018093480132
:10242000EFE2F9E0E491E09347018CB58C7F8CBD3D
:102430008DB581608DBDE0914B01F0914C01908193
:1024400080914A01982B9083A0914801B091490155
:102450002C9190914701909592239C939081809527
:1024600089238083E0E4F7E027E0ED34F20749F0C8
:1024700084918EBD00000DB407FEFDCF8EB5319660
:10248000F3CFE0914801F09149018081909147019B
:10249000892B8083E0914B01F0914C0190818091D8
:1024A0004A018095892380838091640081608093B4
:1024B0006400809164008260809364008091640075
:1024C00080688093640080916400806480936400DD
:1024D000809165008160809365000E94C50987FF37
:1024E0001AC080E094E01EBC00000DB407FEFDCFD2
:1024F0002EB50197C1F770E060E08AE00E941808ED
:1025000070E060E08BE00E94180870E060E089E015
:102510000E941808FFCF85E00E94730A8DE00E9498
:10252000730A1092450182E090E00E94A91488236A
:1025300051F080916400877F8093640080916500F2
:10254000877F809365008CE38093D10180E1809345
:10255000D40123E0422E512C34E0632E712CC2E0D2
:10256000D0E043E2842E912CA12CB12C332433945F
:1025700084E0E82E87E4F82E9EE1C92ED12C00E0FD
:1025800010E02FB7F8948091540190915501A091DB
:102590005601B09157012FBF2091DD01222391F008
:1025A0002091D501382F321B3093DE012091D201CA
:1025B0003091D3012F5F3F4F3093D3012093D2014D
:1025C0001092DD014091D9015091DA016091DB0157
:1025D0007091DC0184179507A607B707A4F4481B80
:1025E000423050F083B7817F83BF83B7816083BF60
:1025F000889583B78E7F83BF0115110509F4C1CF7C
:102600000E940000B3CF2091D401AC01BD01420F64
:10261000511D611D711D4093D9015093DA016093E2
:10262000DB017093DC018093D5019093D601A093D8
:10263000D701B093D8013092DD0180E02FED31E079
:10264000B82FB111BFEFF9010024B193B193B19349
:10265000B1930394D1F70E94C50984FF0EC0809105
:102660000201909103018D3391053CF40196909302
:102670000301809302010E94020C0E94C50987FF9A
:102680000EC08091020190910301181619063CF4C6
:10269000019790930301809302010E94020C0E9413
:1026A000C50985FF08C0D0920301C09202018EE1E6
:1026B00090E00E94020C0E94C50986FF3EC00E9465
:1026C000991461E670E00E9414158F5F8093CA012F
:1026D0000E9499146DE270E00E9414158F5F809340
:1026E000C9010E94991464E070E00E9414150196DB
:1026F00090930101809300010E94C50986FDFCCFE3
:10270000809152018823C9F030925101809181005B
:10271000887F816080938100F0928900E092880038
:1027200080924D0190924E01A0924F01B0925001C3
:1027300080916F00826080936F000E94C50983FFC3
:1027400008C01092520181E090E0909311018093B3
:1027500010010E94C50982FF06C030925201D09339
:102760001101C09310016091020170910301072EC5
:10277000000C880B990B0E94E0082091C90182E0AF
:1027800090E02F3268F48091000190910101823035
:10279000910509F44BC0C4F4019769F181E090E020
:1027A0000E94A5058091DF018EBDE0EEF1E08191F0
:1027B0000DB407FEFDCF8EBD35E0EF3DF307B9F751
:1027C0000DB407FEFDCF18CF8330910509F449C041
:1027D000049721F78091CA0191E0980F9093CA0164
:1027E00021502093C901913608F451C0222379F079
:1027F0002D3248F1D3CF8091CA018F5F8093CA01F7
:102800002F5F2093C901813648F02D32E0F4D09338
:102810000101C09300010E94760CC0CF2D3208F454
:10282000BDCF7092010160920001F5CF8091CA0185
:1028300081508093CA012F5F2093C9012D3240F04F
:10284000823608F0ABCF5092010140920001E3CFF5
:102850008111A4CF81E090E0909301018093000169
:10286000DACF8091CA0181508093CA012150209310
:10287000C901811106C0222369F32D3208F08ECFE1
:10288000D0CF21118BCF813608F088CFC0CF8036D2
:1028900008F084CF211182CFDDCF8F929F92AF922B
:1028A000BF92CF92DF92EF92FF92CF93DF93EC0132
:1028B000688179818A819B81611571058105910506
:1028C00021F464E279ED8BE597E02DE133EF41E00F
:1028D00050E00E94B11449015A019B01AC01A7EAE2
:1028E000B1E40E94D0146B017C01ACEEB4EFA50101
:1028F00094010E94DE14DC01CB018C0D9D1DAE1DE8
:10290000BF1DB7FF03C00197A109B0488883998311
:10291000AA83BB839F77DF91CF91FF90EF90DF90E9
:10292000CF90BF90AF909F908F9008950E944D14CC
:10293000089582E191E00E944D140895B0E0A0E076
:102940008093120190931301A0931401B093150189
:102950000895F999FECF92BD81BDF89A992780B567
:102960000895052E97FB1EF400940E94C81457FD8D
:1029700007D00E94E31407FC03D04EF40C94C81453
:1029800050954095309521953F4F4F4F5F4F08959B
:1029900090958095709561957F4F8F4F9F4F0895CB
:1029A0000E940515A59F900DB49F900DA49F800DCA
:1029B000911D11240895B7FF0C94D0140E94D014D7
:1029C000821B930B0895A1E21A2EAA1BBB1BFD01CB
:1029D0000DC0AA1FBB1FEE1FFF1FA217B307E407FE
:1029E000F50720F0A21BB30BE40BF50B661F771F56
:1029F000881F991F1A9469F7609570958095909536
:102A00009B01AC01BD01CF010895A29FB001B39F0E
:102A1000C001A39F700D811D1124911DB29F700DE7
:102A2000811D1124911D089597FB072E16F4009423
:102A300007D077FD09D00E942E1507FC05D03EF483
:102A4000909581959F4F0895709561957F4F08955A
:102A5000EE0FFF1F0590F491E02D0994AA1BBB1BFC
:102A600051E107C0AA1FBB1FA617B70710F0A61B8E
:102A7000B70B881F991F5A95A9F780959095BC01AF
:102A8000CD01089581E090E0F8940C944715F894F6
:022A9000FFCF76
:102A920001001E00FFFFFFFF00E100000000000038
:102AA20001000100000000C1808100000000000060
:102AB200002506130946063B068C064A06680600F0
:0C2AC200000000E40A9809FF0BFE0B0066
:00000001FF
